{
  "_format": "hh-sol-artifact-1",
  "contractName": "SpaceNFT",
  "sourceName": "src/contracts/SpaceNFT.sol",
  "abi": [
    {
      "inputs": [
        {
          "internalType": "string",
          "name": "_name",
          "type": "string"
        },
        {
          "internalType": "string",
          "name": "_symbol",
          "type": "string"
        },
        {
          "internalType": "string",
          "name": "_uri",
          "type": "string"
        }
      ],
      "stateMutability": "nonpayable",
      "type": "constructor"
    },
    {
      "inputs": [],
      "name": "ApprovalCallerNotOwnerNorApproved",
      "type": "error"
    },
    {
      "inputs": [],
      "name": "ApprovalQueryForNonexistentToken",
      "type": "error"
    },
    {
      "inputs": [],
      "name": "BalanceQueryForZeroAddress",
      "type": "error"
    },
    {
      "inputs": [],
      "name": "MintERC2309QuantityExceedsLimit",
      "type": "error"
    },
    {
      "inputs": [],
      "name": "MintToZeroAddress",
      "type": "error"
    },
    {
      "inputs": [],
      "name": "MintZeroQuantity",
      "type": "error"
    },
    {
      "inputs": [],
      "name": "OwnerQueryForNonexistentToken",
      "type": "error"
    },
    {
      "inputs": [],
      "name": "OwnershipNotInitializedForExtraData",
      "type": "error"
    },
    {
      "inputs": [],
      "name": "TransferCallerNotOwnerNorApproved",
      "type": "error"
    },
    {
      "inputs": [],
      "name": "TransferFromIncorrectOwner",
      "type": "error"
    },
    {
      "inputs": [],
      "name": "TransferToNonERC721ReceiverImplementer",
      "type": "error"
    },
    {
      "inputs": [],
      "name": "TransferToZeroAddress",
      "type": "error"
    },
    {
      "inputs": [],
      "name": "URIQueryForNonexistentToken",
      "type": "error"
    },
    {
      "inputs": [],
      "name": "ZukuverseBase__NOTADMIN",
      "type": "error"
    },
    {
      "inputs": [],
      "name": "Zukuverse__LOWFUNDS",
      "type": "error"
    },
    {
      "inputs": [],
      "name": "Zukuverse__NOTPUBLIC",
      "type": "error"
    },
    {
      "inputs": [],
      "name": "Zukuverse__OVERMAXMINT",
      "type": "error"
    },
    {
      "anonymous": false,
      "inputs": [
        {
          "indexed": true,
          "internalType": "address",
          "name": "owner",
          "type": "address"
        },
        {
          "indexed": true,
          "internalType": "address",
          "name": "approved",
          "type": "address"
        },
        {
          "indexed": true,
          "internalType": "uint256",
          "name": "tokenId",
          "type": "uint256"
        }
      ],
      "name": "Approval",
      "type": "event"
    },
    {
      "anonymous": false,
      "inputs": [
        {
          "indexed": true,
          "internalType": "address",
          "name": "owner",
          "type": "address"
        },
        {
          "indexed": true,
          "internalType": "address",
          "name": "operator",
          "type": "address"
        },
        {
          "indexed": false,
          "internalType": "bool",
          "name": "approved",
          "type": "bool"
        }
      ],
      "name": "ApprovalForAll",
      "type": "event"
    },
    {
      "anonymous": false,
      "inputs": [
        {
          "indexed": true,
          "internalType": "uint256",
          "name": "fromTokenId",
          "type": "uint256"
        },
        {
          "indexed": false,
          "internalType": "uint256",
          "name": "toTokenId",
          "type": "uint256"
        },
        {
          "indexed": true,
          "internalType": "address",
          "name": "from",
          "type": "address"
        },
        {
          "indexed": true,
          "internalType": "address",
          "name": "to",
          "type": "address"
        }
      ],
      "name": "ConsecutiveTransfer",
      "type": "event"
    },
    {
      "anonymous": false,
      "inputs": [
        {
          "indexed": true,
          "internalType": "address",
          "name": "previousOwner",
          "type": "address"
        },
        {
          "indexed": true,
          "internalType": "address",
          "name": "newOwner",
          "type": "address"
        }
      ],
      "name": "OwnershipTransferred",
      "type": "event"
    },
    {
      "anonymous": false,
      "inputs": [
        {
          "indexed": true,
          "internalType": "address",
          "name": "from",
          "type": "address"
        },
        {
          "indexed": true,
          "internalType": "address",
          "name": "to",
          "type": "address"
        },
        {
          "indexed": true,
          "internalType": "uint256",
          "name": "tokenId",
          "type": "uint256"
        }
      ],
      "name": "Transfer",
      "type": "event"
    },
    {
      "anonymous": false,
      "inputs": [
        {
          "indexed": true,
          "internalType": "address",
          "name": "sender",
          "type": "address"
        },
        {
          "indexed": true,
          "internalType": "uint256",
          "name": "quantity",
          "type": "uint256"
        }
      ],
      "name": "Zukuverse__Minted",
      "type": "event"
    },
    {
      "inputs": [
        {
          "internalType": "address",
          "name": "_owner",
          "type": "address"
        },
        {
          "internalType": "uint256",
          "name": "_quantity",
          "type": "uint256"
        }
      ],
      "name": "adminMint",
      "outputs": [],
      "stateMutability": "nonpayable",
      "type": "function"
    },
    {
      "inputs": [
        {
          "internalType": "address",
          "name": "to",
          "type": "address"
        },
        {
          "internalType": "uint256",
          "name": "tokenId",
          "type": "uint256"
        }
      ],
      "name": "approve",
      "outputs": [],
      "stateMutability": "payable",
      "type": "function"
    },
    {
      "inputs": [
        {
          "internalType": "address",
          "name": "owner",
          "type": "address"
        }
      ],
      "name": "balanceOf",
      "outputs": [
        {
          "internalType": "uint256",
          "name": "",
          "type": "uint256"
        }
      ],
      "stateMutability": "view",
      "type": "function"
    },
    {
      "inputs": [],
      "name": "baseURI",
      "outputs": [
        {
          "internalType": "string",
          "name": "",
          "type": "string"
        }
      ],
      "stateMutability": "view",
      "type": "function"
    },
    {
      "inputs": [
        {
          "internalType": "bool",
          "name": "_publicSale",
          "type": "bool"
        }
      ],
      "name": "editActiveSale",
      "outputs": [],
      "stateMutability": "nonpayable",
      "type": "function"
    },
    {
      "inputs": [
        {
          "internalType": "uint256",
          "name": "_publicPrice",
          "type": "uint256"
        },
        {
          "internalType": "uint256",
          "name": "_maxSupply",
          "type": "uint256"
        },
        {
          "internalType": "uint24",
          "name": "_publicMaxPerAddress",
          "type": "uint24"
        }
      ],
      "name": "editMintConfig",
      "outputs": [],
      "stateMutability": "nonpayable",
      "type": "function"
    },
    {
      "inputs": [
        {
          "internalType": "uint256",
          "name": "tokenId",
          "type": "uint256"
        }
      ],
      "name": "getApproved",
      "outputs": [
        {
          "internalType": "address",
          "name": "",
          "type": "address"
        }
      ],
      "stateMutability": "view",
      "type": "function"
    },
    {
      "inputs": [
        {
          "internalType": "address",
          "name": "",
          "type": "address"
        }
      ],
      "name": "isAdmin",
      "outputs": [
        {
          "internalType": "bool",
          "name": "",
          "type": "bool"
        }
      ],
      "stateMutability": "view",
      "type": "function"
    },
    {
      "inputs": [
        {
          "internalType": "address",
          "name": "owner",
          "type": "address"
        },
        {
          "internalType": "address",
          "name": "operator",
          "type": "address"
        }
      ],
      "name": "isApprovedForAll",
      "outputs": [
        {
          "internalType": "bool",
          "name": "",
          "type": "bool"
        }
      ],
      "stateMutability": "view",
      "type": "function"
    },
    {
      "inputs": [],
      "name": "name",
      "outputs": [
        {
          "internalType": "string",
          "name": "",
          "type": "string"
        }
      ],
      "stateMutability": "view",
      "type": "function"
    },
    {
      "inputs": [
        {
          "internalType": "address",
          "name": "owner",
          "type": "address"
        }
      ],
      "name": "numberMinted",
      "outputs": [
        {
          "internalType": "uint256",
          "name": "",
          "type": "uint256"
        }
      ],
      "stateMutability": "view",
      "type": "function"
    },
    {
      "inputs": [],
      "name": "owner",
      "outputs": [
        {
          "internalType": "address",
          "name": "",
          "type": "address"
        }
      ],
      "stateMutability": "view",
      "type": "function"
    },
    {
      "inputs": [
        {
          "internalType": "uint256",
          "name": "tokenId",
          "type": "uint256"
        }
      ],
      "name": "ownerOf",
      "outputs": [
        {
          "internalType": "address",
          "name": "",
          "type": "address"
        }
      ],
      "stateMutability": "view",
      "type": "function"
    },
    {
      "inputs": [],
      "name": "publicMint",
      "outputs": [],
      "stateMutability": "payable",
      "type": "function"
    },
    {
      "inputs": [],
      "name": "publicSale",
      "outputs": [
        {
          "internalType": "bool",
          "name": "",
          "type": "bool"
        }
      ],
      "stateMutability": "view",
      "type": "function"
    },
    {
      "inputs": [
        {
          "internalType": "address",
          "name": "_addr",
          "type": "address"
        }
      ],
      "name": "removeAdmin",
      "outputs": [],
      "stateMutability": "nonpayable",
      "type": "function"
    },
    {
      "inputs": [],
      "name": "renounceOwnership",
      "outputs": [],
      "stateMutability": "nonpayable",
      "type": "function"
    },
    {
      "inputs": [
        {
          "internalType": "address",
          "name": "from",
          "type": "address"
        },
        {
          "internalType": "address",
          "name": "to",
          "type": "address"
        },
        {
          "internalType": "uint256",
          "name": "tokenId",
          "type": "uint256"
        }
      ],
      "name": "safeTransferFrom",
      "outputs": [],
      "stateMutability": "payable",
      "type": "function"
    },
    {
      "inputs": [
        {
          "internalType": "address",
          "name": "from",
          "type": "address"
        },
        {
          "internalType": "address",
          "name": "to",
          "type": "address"
        },
        {
          "internalType": "uint256",
          "name": "tokenId",
          "type": "uint256"
        },
        {
          "internalType": "bytes",
          "name": "_data",
          "type": "bytes"
        }
      ],
      "name": "safeTransferFrom",
      "outputs": [],
      "stateMutability": "payable",
      "type": "function"
    },
    {
      "inputs": [
        {
          "internalType": "address",
          "name": "_addr",
          "type": "address"
        }
      ],
      "name": "setAdmin",
      "outputs": [],
      "stateMutability": "nonpayable",
      "type": "function"
    },
    {
      "inputs": [
        {
          "internalType": "address",
          "name": "operator",
          "type": "address"
        },
        {
          "internalType": "bool",
          "name": "approved",
          "type": "bool"
        }
      ],
      "name": "setApprovalForAll",
      "outputs": [],
      "stateMutability": "nonpayable",
      "type": "function"
    },
    {
      "inputs": [
        {
          "internalType": "string",
          "name": "_uri",
          "type": "string"
        }
      ],
      "name": "setURI",
      "outputs": [],
      "stateMutability": "nonpayable",
      "type": "function"
    },
    {
      "inputs": [],
      "name": "spaceNFTMintconfig",
      "outputs": [
        {
          "internalType": "uint24",
          "name": "publicMaxPerAddress",
          "type": "uint24"
        },
        {
          "internalType": "uint256",
          "name": "publicPrice",
          "type": "uint256"
        },
        {
          "internalType": "uint256",
          "name": "maxSupply",
          "type": "uint256"
        }
      ],
      "stateMutability": "view",
      "type": "function"
    },
    {
      "inputs": [
        {
          "internalType": "bytes4",
          "name": "interfaceId",
          "type": "bytes4"
        }
      ],
      "name": "supportsInterface",
      "outputs": [
        {
          "internalType": "bool",
          "name": "",
          "type": "bool"
        }
      ],
      "stateMutability": "view",
      "type": "function"
    },
    {
      "inputs": [],
      "name": "symbol",
      "outputs": [
        {
          "internalType": "string",
          "name": "",
          "type": "string"
        }
      ],
      "stateMutability": "view",
      "type": "function"
    },
    {
      "inputs": [
        {
          "internalType": "uint256",
          "name": "tokenId",
          "type": "uint256"
        }
      ],
      "name": "tokenURI",
      "outputs": [
        {
          "internalType": "string",
          "name": "",
          "type": "string"
        }
      ],
      "stateMutability": "view",
      "type": "function"
    },
    {
      "inputs": [],
      "name": "totalSupply",
      "outputs": [
        {
          "internalType": "uint256",
          "name": "",
          "type": "uint256"
        }
      ],
      "stateMutability": "view",
      "type": "function"
    },
    {
      "inputs": [
        {
          "internalType": "address",
          "name": "from",
          "type": "address"
        },
        {
          "internalType": "address",
          "name": "to",
          "type": "address"
        },
        {
          "internalType": "uint256",
          "name": "tokenId",
          "type": "uint256"
        }
      ],
      "name": "transferFrom",
      "outputs": [],
      "stateMutability": "payable",
      "type": "function"
    },
    {
      "inputs": [
        {
          "internalType": "address",
          "name": "newOwner",
          "type": "address"
        }
      ],
      "name": "transferOwnership",
      "outputs": [],
      "stateMutability": "nonpayable",
      "type": "function"
    }
  ],
  "bytecode": "0x6080604052600c805460ff191660011790553480156200001e57600080fd5b5060405162001cff38038062001cff83398101604081905262000041916200026e565b82828282826200005133620000ab565b815162000066906003906020850190620000fb565b5080516200007c906004906020840190620000fb565b5060006001908155600955505080516200009e90600b906020840190620000fb565b505050505050506200033c565b600080546001600160a01b038381166001600160a01b0319831681178455604051919092169283917f8be0079c531659141344cd1fd0a4f28419497f9722a3daafe3b4186f6b6457e09190a35050565b8280546200010990620002ff565b90600052602060002090601f0160209004810192826200012d576000855562000178565b82601f106200014857805160ff191683800117855562000178565b8280016001018555821562000178579182015b82811115620001785782518255916020019190600101906200015b565b50620001869291506200018a565b5090565b5b808211156200018657600081556001016200018b565b634e487b7160e01b600052604160045260246000fd5b600082601f830112620001c957600080fd5b81516001600160401b0380821115620001e657620001e6620001a1565b604051601f8301601f19908116603f01168101908282118183101715620002115762000211620001a1565b816040528381526020925086838588010111156200022e57600080fd5b600091505b8382101562000252578582018301518183018401529082019062000233565b83821115620002645760008385830101525b9695505050505050565b6000806000606084860312156200028457600080fd5b83516001600160401b03808211156200029c57600080fd5b620002aa87838801620001b7565b94506020860151915080821115620002c157600080fd5b620002cf87838801620001b7565b93506040860151915080821115620002e657600080fd5b50620002f586828701620001b7565b9150509250925092565b600181811c908216806200031457607f821691505b602082108114156200033657634e487b7160e01b600052602260045260246000fd5b50919050565b6119b3806200034c6000396000f3fe6080604052600436106101c15760003560e01c80636352211e116100f757806395d89b4111610095578063dc33e68111610064578063dc33e681146104da578063e58306f9146104fa578063e985e9c51461051a578063f2fde38b1461056357600080fd5b806395d89b4114610472578063a22cb46514610487578063b88d4fde146104a7578063c87b56dd146104ba57600080fd5b806370a08231116100d157806370a08231146103ff578063715018a61461041f57806382e2b2f2146104345780638da5cb5b1461045457600080fd5b80636352211e146103aa5780636c0360eb146103ca578063704b6c02146103df57600080fd5b806318160ddd1161016457806324d7806c1161013e57806324d7806c1461034557806326092b831461037557806333bc1c5c1461037d57806342842e0e1461039757600080fd5b806318160ddd146102ca578063231f6089146102ed57806323b872dd1461033257600080fd5b806306fdde03116101a057806306fdde031461023d578063081812fc1461025f578063095ea7b3146102975780631785f53c146102aa57600080fd5b8062b27f91146101c657806301ffc9a7146101e857806302fe53051461021d575b600080fd5b3480156101d257600080fd5b506101e66101e1366004611455565b610583565b005b3480156101f457600080fd5b506102086102033660046114ac565b6105ec565b60405190151581526020015b60405180910390f35b34801561022957600080fd5b506101e6610238366004611555565b6105fd565b34801561024957600080fd5b5061025261065d565b60405161021491906115f6565b34801561026b57600080fd5b5061027f61027a366004611609565b6106ef565b6040516001600160a01b039091168152602001610214565b6101e66102a536600461163e565b610733565b3480156102b657600080fd5b506101e66102c5366004611668565b6107d3565b3480156102d657600080fd5b50600254600154035b604051908152602001610214565b3480156102f957600080fd5b50600d54600e54600f546103119262ffffff16919083565b6040805162ffffff9094168452602084019290925290820152606001610214565b6101e6610340366004611683565b6107fc565b34801561035157600080fd5b50610208610360366004611668565b600a6020526000908152604090205460ff1681565b6101e661098d565b34801561038957600080fd5b50600c546102089060ff1681565b6101e66103a5366004611683565b610a52565b3480156103b657600080fd5b5061027f6103c5366004611609565b610a72565b3480156103d657600080fd5b50610252610a7d565b3480156103eb57600080fd5b506101e66103fa366004611668565b610b0b565b34801561040b57600080fd5b506102df61041a366004611668565b610b37565b34801561042b57600080fd5b506101e6610b86565b34801561044057600080fd5b506101e661044f3660046116cf565b610b9a565b34801561046057600080fd5b506000546001600160a01b031661027f565b34801561047e57600080fd5b50610252610bf6565b34801561049357600080fd5b506101e66104a23660046116ea565b610c05565b6101e66104b536600461171d565b610c71565b3480156104c657600080fd5b506102526104d5366004611609565b610cbb565b3480156104e657600080fd5b506102df6104f5366004611668565b610d52565b34801561050657600080fd5b506101e661051536600461163e565b610d7d565b34801561052657600080fd5b50610208610535366004611799565b6001600160a01b03918216600090815260086020908152604080832093909416825291909152205460ff1690565b34801561056f57600080fd5b506101e661057e366004611668565b610e6f565b336000908152600a602052604090205460ff161580156105ae57506000546001600160a01b03163314155b156105cc576040516393104c5d60e01b815260040160405180910390fd5b600d805462ffffff191662ffffff92909216919091179055600f55600e55565b60006105f782610ee5565b92915050565b336000908152600a602052604090205460ff1615801561062857506000546001600160a01b03163314155b15610646576040516393104c5d60e01b815260040160405180910390fd5b805161065990600b9060208401906113bc565b5050565b60606003805461066c906117c3565b80601f0160208091040260200160405190810160405280929190818152602001828054610698906117c3565b80156106e55780601f106106ba576101008083540402835291602001916106e5565b820191906000526020600020905b8154815290600101906020018083116106c857829003601f168201915b5050505050905090565b60006106fa82610f33565b610717576040516333d1c03960e21b815260040160405180910390fd5b506000908152600760205260409020546001600160a01b031690565b600061073e82610a72565b9050336001600160a01b038216146107775761075a8133610535565b610777576040516367d9dca160e11b815260040160405180910390fd5b60008281526007602052604080822080546001600160a01b0319166001600160a01b0387811691821790925591518593918516917f8c5be1e5ebec7d5bd14f71427d1e84f3dd0314c0f7b2291e5b200ac8c7c3b92591a4505050565b6107db610f5b565b6001600160a01b03166000908152600a60205260409020805460ff19169055565b600061080782610fb5565b9050836001600160a01b0316816001600160a01b03161461083a5760405162a1148160e81b815260040160405180910390fd5b60008281526007602052604090208054338082146001600160a01b038816909114176108875761086a8633610535565b61088757604051632ce44b5f60e11b815260040160405180910390fd5b6001600160a01b0385166108ae57604051633a954ecd60e21b815260040160405180910390fd5b80156108b957600082555b6001600160a01b038681166000908152600660205260408082208054600019019055918716808252919020805460010190554260a01b17600160e11b17600085815260056020526040902055600160e11b831661094457600184016000818152600560205260409020546109425760015481146109425760008181526005602052604090208490555b505b83856001600160a01b0316876001600160a01b03167fddf252ad1be2c89b69c2b068fc378daa952ba7f163c4a11628f55a4df523b3ef60405160405180910390a4505050505050565b3233146109d05760405162461bcd60e51b815260206004820152600c60248201526b2737ba10309029b2b73232b960a11b60448201526064015b60405180910390fd5b600c5460019060ff166109f657604051639b4916df60e01b815260040160405180910390fd5b600e54610a049082906117fe565b341015610a2457604051635eaa451b60e01b815260040160405180910390fd5b6001811115610a4657604051631e1f602160e31b815260040160405180910390fd5b610a4f81611016565b50565b610a6d83838360405180602001604052806000815250610c71565b505050565b60006105f782610fb5565b600b8054610a8a906117c3565b80601f0160208091040260200160405190810160405280929190818152602001828054610ab6906117c3565b8015610b035780601f10610ad857610100808354040283529160200191610b03565b820191906000526020600020905b815481529060010190602001808311610ae657829003601f168201915b505050505081565b610b13610f5b565b6001600160a01b03166000908152600a60205260409020805460ff19166001179055565b60006001600160a01b038216610b60576040516323d3ad8160e21b815260040160405180910390fd5b506001600160a01b031660009081526006602052604090205467ffffffffffffffff1690565b610b8e610f5b565b610b9860006110ad565b565b336000908152600a602052604090205460ff16158015610bc557506000546001600160a01b03163314155b15610be3576040516393104c5d60e01b815260040160405180910390fd5b600c805460ff1916911515919091179055565b60606004805461066c906117c3565b3360008181526008602090815260408083206001600160a01b03871680855290835292819020805460ff191686151590811790915590519081529192917f17307eab39ab6107e8899845ad3d59bd9653f200f220920489ca2b5937696c31910160405180910390a35050565b610c7c8484846107fc565b6001600160a01b0383163b15610cb557610c98848484846110fd565b610cb5576040516368d2bf6b60e11b815260040160405180910390fd5b50505050565b6060610cc682610f33565b610ce357604051630a14c4b560e41b815260040160405180910390fd5b6000610ced6111e6565b9050805160001415610d1f57600b604051602001610d0b91906118c5565b604051602081830303815290604052610d4b565b600b610d2a846111f5565b604051602001610d3b9291906118ee565b6040516020818303038152906040525b9392505050565b6001600160a01b0381166000908152600660205260408082205467ffffffffffffffff911c166105f7565b336000908152600a602052604090205460ff16158015610da857506000546001600160a01b03163314155b15610dc6576040516393104c5d60e01b815260040160405180910390fd5b60026009541415610e195760405162461bcd60e51b815260206004820152601f60248201527f5265656e7472616e637947756172643a207265656e7472616e742063616c6c0060448201526064016109c7565b6002600955323314610e5c5760405162461bcd60e51b815260206004820152600c60248201526b2737ba10309029b2b73232b960a11b60448201526064016109c7565b610e668282611243565b50506001600955565b610e77610f5b565b6001600160a01b038116610edc5760405162461bcd60e51b815260206004820152602660248201527f4f776e61626c653a206e6577206f776e657220697320746865207a65726f206160448201526564647265737360d01b60648201526084016109c7565b610a4f816110ad565b60006301ffc9a760e01b6001600160e01b031983161480610f1657506380ac58cd60e01b6001600160e01b03198316145b806105f75750506001600160e01b031916635b5e139f60e01b1490565b6000600154821080156105f7575050600090815260056020526040902054600160e01b161590565b6000546001600160a01b03163314610b985760405162461bcd60e51b815260206004820181905260248201527f4f776e61626c653a2063616c6c6572206973206e6f7420746865206f776e657260448201526064016109c7565b600081600154811015610ffd57600081815260056020526040902054600160e01b8116610ffb575b80610d4b575060001901600081815260056020526040902054610fdd565b505b604051636f96cda160e11b815260040160405180910390fd5b600260095414156110695760405162461bcd60e51b815260206004820152601f60248201527f5265656e7472616e637947756172643a207265656e7472616e742063616c6c0060448201526064016109c7565b60026009556110783382611243565b604051819033907f4fcce90f9ac13c3fa1b63fe93e9d9334b18a128e05b7912a8abcdcea3536779990600090a3506001600955565b600080546001600160a01b038381166001600160a01b0319831681178455604051919092169283917f8be0079c531659141344cd1fd0a4f28419497f9722a3daafe3b4186f6b6457e09190a35050565b604051630a85bd0160e11b81526000906001600160a01b0385169063150b7a0290611132903390899088908890600401611923565b6020604051808303816000875af192505050801561116d575060408051601f3d908101601f1916820190925261116a91810190611960565b60015b6111c8573d80801561119b576040519150601f19603f3d011682016040523d82523d6000602084013e6111a0565b606091505b5080516111c0576040516368d2bf6b60e11b815260040160405180910390fd5b805181602001fd5b6001600160e01b031916630a85bd0160e11b1490505b949350505050565b6060600b805461066c906117c3565b606060a06040510180604052602081039150506000815280825b600183039250600a81066030018353600a90048061122c57611231565b61120f565b50819003601f19909101908152919050565b61065982826040518060200160405280600081525061126283836112c5565b6001600160a01b0383163b15610a6d576001548281035b61128c60008683806001019450866110fd565b6112a9576040516368d2bf6b60e11b815260040160405180910390fd5b8181106112795781600154146112be57600080fd5b5050505050565b600154816112e65760405163b562e8dd60e01b815260040160405180910390fd5b6001600160a01b03831660008181526006602090815260408083208054680100000000000000018802019055848352600590915281206001851460e11b4260a01b178317905582840190839083907fddf252ad1be2c89b69c2b068fc378daa952ba7f163c4a11628f55a4df523b3ef8180a4600183015b81811461139557808360007fddf252ad1be2c89b69c2b068fc378daa952ba7f163c4a11628f55a4df523b3ef600080a460010161135d565b50816113b357604051622e076360e81b815260040160405180910390fd5b60015550505050565b8280546113c8906117c3565b90600052602060002090601f0160209004810192826113ea5760008555611430565b82601f1061140357805160ff1916838001178555611430565b82800160010185558215611430579182015b82811115611430578251825591602001919060010190611415565b5061143c929150611440565b5090565b5b8082111561143c5760008155600101611441565b60008060006060848603121561146a57600080fd5b8335925060208401359150604084013562ffffff8116811461148b57600080fd5b809150509250925092565b6001600160e01b031981168114610a4f57600080fd5b6000602082840312156114be57600080fd5b8135610d4b81611496565b634e487b7160e01b600052604160045260246000fd5b600067ffffffffffffffff808411156114fa576114fa6114c9565b604051601f8501601f19908116603f01168101908282118183101715611522576115226114c9565b8160405280935085815286868601111561153b57600080fd5b858560208301376000602087830101525050509392505050565b60006020828403121561156757600080fd5b813567ffffffffffffffff81111561157e57600080fd5b8201601f8101841361158f57600080fd5b6111de848235602084016114df565b60005b838110156115b95781810151838201526020016115a1565b83811115610cb55750506000910152565b600081518084526115e281602086016020860161159e565b601f01601f19169290920160200192915050565b602081526000610d4b60208301846115ca565b60006020828403121561161b57600080fd5b5035919050565b80356001600160a01b038116811461163957600080fd5b919050565b6000806040838503121561165157600080fd5b61165a83611622565b946020939093013593505050565b60006020828403121561167a57600080fd5b610d4b82611622565b60008060006060848603121561169857600080fd5b6116a184611622565b92506116af60208501611622565b9150604084013590509250925092565b8035801515811461163957600080fd5b6000602082840312156116e157600080fd5b610d4b826116bf565b600080604083850312156116fd57600080fd5b61170683611622565b9150611714602084016116bf565b90509250929050565b6000806000806080858703121561173357600080fd5b61173c85611622565b935061174a60208601611622565b925060408501359150606085013567ffffffffffffffff81111561176d57600080fd5b8501601f8101871361177e57600080fd5b61178d878235602084016114df565b91505092959194509250565b600080604083850312156117ac57600080fd5b6117b583611622565b915061171460208401611622565b600181811c908216806117d757607f821691505b602082108114156117f857634e487b7160e01b600052602260045260246000fd5b50919050565b600081600019048311821515161561182657634e487b7160e01b600052601160045260246000fd5b500290565b8054600090600181811c908083168061184557607f831692505b602080841082141561186757634e487b7160e01b600052602260045260246000fd5b81801561187b576001811461188c576118b9565b60ff198616895284890196506118b9565b60008881526020902060005b868110156118b15781548b820152908501908301611898565b505084890196505b50505050505092915050565b60006118d1828461182b565b6c3ab73932bb32b0b6173539b7b760991b8152600d019392505050565b60006118fa828561182b565b835161190a81836020880161159e565b64173539b7b760d91b9101908152600501949350505050565b6001600160a01b0385811682528416602082015260408101839052608060608201819052600090611956908301846115ca565b9695505050505050565b60006020828403121561197257600080fd5b8151610d4b8161149656fea2646970667358221220f486c0f5390713f77c44823840346033fbcbe93cb74ce23dde01d7a911466a8664736f6c634300080b0033",
  "linkReferences": {},
  "deployedLinkReferences": {}
}